:020000040800F2
:1000000000040020C1010008112400081124000888
:10001000A11600081124000811240008112400086A
:10002000112400081124000811240008614400086C
:10003000112400081124000811240008E19300088D
:1000400011240008917100082173000871730008E1
:100050001124000811240008D16E0008216F000847
:10006000716F0008C16F000811700008A1610008DD
:10007000F16100084162000891620008E162000835
:100080003163000881630008116C000811750008D5
:100090008175000831760008E1760008617000087B
:1000A0001124000811240008918E00081124000872
:1000B000A18F0008E18F000821900008E18200086C
:1000C00021840008112400081124000811240008CC
:1000D000112400081124000811240008A19400082C
:1000E000F1700008E1710008317200081124000865
:1000F000112400081124000811240008D16300080D
:10010000112400087178000861900008112400088B
:100110001124000811240008518E00081124000841
:100120002164000871640008C164000811650008BA
:10013000616500081124000881720008112400087C
:10014000112400081124000811240008918A0008D5
:10015000B165000801660008516600081124000816
:10016000112400081124000811240008112400089B
:10017000D17200081124000851140008112400084D
:10018000112400081124000811240008112400087B
:10019000112400081124000811240008112400086B
:1001A000112400081124000811240008112400085B
:1001B000112400081124000811240008112400084B
:1001C00072B62E4880F3098840F20000CCF200009D
:1001D0004EF63471CEF20001086040F20000C0F229
:1001E000F0004EF68851CEF2000108604FF000009A
:1001F000E1EE100A4EF63C71CEF2000108600620D6
:1002000080F31488BFF36F8F09F092FA4FF05530E6
:100210001B491C4A91423CBF41F8040BFAE71A49BA
:10022000164A91423CBF41F8040BFAE71749184AB5
:10023000184B9A423EBF51F8040B42F8040BF8E702
:1002400000201549154A91423CBF41F8040BFAE7DA
:1002500002F0C6F8124C134DAC4203DA54F8041BFA
:100260008847F9E701F024F80F4C104DAC4203DA4F
:1002700054F8041B8847F9E702F0C2B800080020D0
:10028000000000200004002000040020C8DF000857
:1002900000080020F4110020F81100208028002020
:1002A000C0010008C0010008C0010008C00100082A
:1002B0002DE9F04F2DED108AC1F80CD0D0F80CD0FC
:1002C000BDEC108ABDE8F08F02F0E2F903F0A0F96E
:1002D000002383F311882846A047002002F068FF1E
:1002E00003F07EF902F0B4F902F0D2FD02F0D0F989
:1002F00003F08EF900DFFEE70000000000000000C0
:1003000081F0004102E000BF83F0004330B54FEAC6
:1003100041044FEA430594EA050F08BF90EA020F33
:100320001FBF54EA000C55EA020C7FEA645C7FEAC6
:10033000655C00F0E2804FEA5454D4EB5555B8BFE9
:100340006D420CDD2C4480EA020281EA030382EA5A
:10035000000083EA010180EA020281EA0303362DEC
:1003600088BF30BD11F0004F4FEA01314FF4801CBF
:100370004CEA113102D0404261EB410113F0004FD1
:100380004FEA03334CEA133302D0524263EB430388
:1003900094EA050F00F0A780A4F10104D5F1200E26
:1003A0000DDB02FA0EFC22FA05F2801841F1000181
:1003B00003FA0EF2801843FA05F359410EE0A5F155
:1003C00020050EF1200E012A03FA0EFC28BF4CF086
:1003D000020C43FA05F3C01851EBE37101F000453C
:1003E00007D54FF0000EDCF1000C7EEB00006EEB49
:1003F0000101B1F5801F1BD3B1F5001F0CD34908D3
:100400005FEA30004FEA3C0C04F101044FEA445229
:1004100012F5800F80F09A80BCF1004F08BF5FEAB0
:10042000500C50F1000041EB045141EA050130BD90
:100430005FEA4C0C404141EB010111F4801FA4F133
:100440000104E9D191F0000F04BF01460020B1FA88
:1004500081F308BF2033A3F10B03B3F120020CDAC0
:100460000C3208DD02F1140CC2F10C0201FA0CF09E
:1004700021FA02F10CE002F11402D8BFC2F1200C03
:1004800001FA02F120FA0CFCDCBF41EA0C019040B9
:10049000E41AA2BF01EB0451294330BD6FEA040402
:1004A0001F3C1CDA0C340EDC04F11404C4F12002ED
:1004B00020FA04F001FA02F340EA030021FA04F3FF
:1004C00045EA030130BDC4F10C04C4F1200220FA56
:1004D00002F001FA04F340EA0300294630BD21FA94
:1004E00004F0294630BD94F0000F83F4801306BF5A
:1004F00081F480110134013D4EE77FEA645C18BF4E
:100500007FEA655C29D094EA050F08BF90EA020FE4
:1005100005D054EA000C04BF1946104630BD91EADC
:10052000030F1EBF0021002030BD5FEA545C05D1DF
:100530004000494128BF41F0004130BD14F580041E
:100540003CBF01F5801130BD01F0004545F0FE4192
:1005500041F470014FF0000030BD7FEA645C1ABFC7
:10056000194610467FEA655C1CBF0B46024650EAFE
:10057000013406BF52EA033591EA030F41F400212A
:1005800030BD00BF90F0000F04BF0021704730B5B0
:100590004FF4806404F132044FF000054FF0000185
:1005A00050E700BF90F0000F04BF0021704730B546
:1005B0004FF4806404F1320410F0004548BF40421B
:1005C0004FF000013EE700BF42004FEAE2014FEA70
:1005D00031014FEA02701FBF12F07F4393F07F4F4B
:1005E00081F06051704732F07F4208BF704793F04E
:1005F0007F4F04BF41F40021704730B54FF4607461
:1006000001F0004521F000411CE700BF50EA010263
:1006100008BF704730B54FF000050AE050EA01020C
:1006200008BF704730B511F0004502D5404261EB7C
:1006300041014FF4806404F132045FEA915C3FF4BD
:10064000D8AE4FF003025FEADC0C18BF03325FEA5A
:10065000DC0C18BF033202EBDC02C2F1200300FA0B
:1006600003FC20FA02F001FA03FE40EA0E0021FA30
:1006700002F11444BDE600BF0000000000000000CD
:1006800070B54FF0FF0C4CF4E06C1CEA11541DBF28
:100690001CEA135594EA0C0F95EA0C0F00F0DEF8F3
:1006A0002C4481EA030621EA4C5123EA4C5350EAD8
:1006B000013518BF52EA033541F4801143F4801329
:1006C00038D0A0FB02CE4FF00005E1FB02E506F0BA
:1006D0000042E0FB03E54FF00006E1FB03569CF00F
:1006E000000F18BF4EF0010EA4F1FF04B6F5007F15
:1006F00064F5407404D25FEA4E0E6D4146EB060687
:1007000042EAC62141EA55514FEAC52040EA5E500F
:100710004FEACE2EB4F1FD0C88BFBCF5E06F1ED8B9
:10072000BEF1004F08BF5FEA500E50F1000041EBF0
:10073000045170BD06F0004646EA010140EA02009D
:1007400081EA0301B4EB5C04C2BFD4EB0C0541EABF
:10075000045170BD41F480114FF0000E013C00F3D4
:10076000AB8014F1360FDEBF002001F0004170BDF8
:10077000C4F10004203C35DA0C341BDC04F1140411
:10078000C4F1200500FA05F320FA04F001FA05F29D
:1007900040EA020001F0004221F0004110EBD3706A
:1007A00021FA04F642EB06015EEA430E08BF20EA96
:1007B000D37070BDC4F10C04C4F1200500FA04F339
:1007C00020FA05F001FA04F240EA020001F00041CB
:1007D00010EBD37041F100015EEA430E08BF20EA3E
:1007E000D37070BDC4F1200500FA05F24EEA020E86
:1007F00020FA04F301FA05F243EA020321FA04F0B5
:1008000001F0004121FA04F220EA020000EBD3706B
:100810005EEA430E08BF20EAD37070BD94F0000F6B
:100820000FD101F00046400041EB010111F4801F9F
:1008300008BF013CF7D041EA060195F0000F18BF50
:10084000704703F00046520043EB030313F4801F8C
:1008500008BF013DF7D043EA0603704794EA0C0F46
:100860000CEA135518BF95EA0C0F0CD050EA41065C
:1008700018BF52EA4306D1D181EA030101F00041D9
:100880004FF0000070BD50EA410606BF1046194601
:1008900052EA430619D094EA0C0F02D150EA01360D
:1008A00013D195EA0C0F05D152EA03361CBF10464E
:1008B00019460AD181EA030101F0004141F0FE41ED
:1008C00041F470014FF0000070BD41F0FE4141F471
:1008D000780170BD70B54FF0FF0C4CF4E06C1CEA71
:1008E00011541DBF1CEA135594EA0C0F95EA0C0F26
:1008F00000F0A7F8A4EB050481EA030E52EA0335E1
:100900004FEA013100F088804FEA03334FF0805501
:1009100045EA131343EA12634FEA022245EA11152E
:1009200045EA10654FEA00260EF000419D4208BFDF
:10093000964244F1FD0404F5407402D25B084FEA8C
:100940003202B61A65EB03055B084FEA32024FF438
:1009500080104FF4002CB6EB020E75EB030E22BF95
:10096000B61A754640EA0C005B084FEA3202B6EB55
:10097000020E75EB030E22BFB61A754640EA5C0004
:100980005B084FEA3202B6EB020E75EB030E22BF94
:10099000B61A754640EA9C005B084FEA3202B6EB95
:1009A000020E75EB030E22BFB61A754640EADC0054
:1009B00055EA060E18D04FEA051545EA16754FEAB6
:1009C00006164FEAC30343EA52734FEAC2025FEAD4
:1009D0001C1CC0D111F4801F0BD141EA00014FF063
:1009E00000004FF0004CB6E711F4801F04BF014334
:1009F0000020B4F1FD0C88BFBCF5E06F3FF6AFAE50
:100A0000B5EB030C04BFB6EB020C5FEA500C50F1DF
:100A1000000041EB045170BD0EF0004E4EEA113162
:100A200014EB5C04C2BFD4EB0C0541EA045170BD69
:100A300041F480114FF0000E013C90E645EA060EAD
:100A40008DE60CEA135594EA0C0F08BF95EA0C0FDB
:100A50003FF43BAF94EA0C0F0AD150EA01347FF423
:100A600034AF95EA0C0F7FF425AF104619462CE7FA
:100A700095EA0C0F06D152EA03353FF4FDAE10465D
:100A8000194622E750EA410618BF52EA43067FF4AE
:100A9000C5AE50EA41047FF40DAF52EA43057FF43E
:100AA000EBAE12E7000000000000000000000000B4
:100AB0004FEA410212F5001215D211D56FF4787386
:100AC000B3EB625212D94FEAC12343F0004343EA29
:100AD000505311F0004F23FA02F018BF4042704704
:100AE0004FF00000704750EA013005D111F000408E
:100AF00008BF6FF0004070474FF00000704700BF24
:100B000053B94AB9002908BF00281CBF4FF0FF3174
:100B10004FF0FF3000F074B9ADF1080C6DE904CE70
:100B200000F006F8DDF804E0DDE9022304B07047C8
:100B30002DE9F047089E04468846002B4BD18A4297
:100B4000154667D9B2FA82F24AB1C2F1200701FA1A
:100B500002F320FA07F7954047EA030894404FEA6A
:100B6000154E230CB8FBFEF71FFA85FC0EFB178809
:100B700043EA084307FB0CF1994209D9EB1807F146
:100B8000FF3080F01B81994240F21881023F2B44D4
:100B90005B1AA4B2B3FBFEF00EFB103344EA03442D
:100BA00000FB0CFCA44509D92C1900F1FF3380F09F
:100BB0000781A44540F2048102382C4440EA0740F2
:100BC000A4EB0C0400271EB1D4400023C6E9004367
:100BD0003946BDE8F0878B4209D9002E00F0EB8042
:100BE0000027C6E9000138463946BDE8F087B3FA68
:100BF00083F7002F47D18B4202D3824200F2FA8062
:100C0000841A61EB030301209846002EE0D0C6E968
:100C10000048DDE702B9FFDEB2FA82F2002A40F0B6
:100C20008F80491B4FEA154E1FFA85F80127B1FB4B
:100C3000FEFC230C0EFB1C1143EA014308FB0CF1E4
:100C4000994207D9EB180CF1FF3002D2994200F219
:100C5000CD808446591AA3B2B1FBFEF00EFB1014EE
:100C600043EA044408FB00F8A04507D92C1900F119
:100C7000FF3302D2A04500F2B6801846A4EB080468
:100C800040EA0C409FE7C7F1200CBB4022FA0CFE63
:100C90004EEA030E01FA07F420FA0CF521FA0CF3E0
:100CA0004FEA1E482543B3FBF8F92C0C08FB193317
:100CB0001FFA8EFA44EA034309FB0AF49C4202FA43
:100CC00007F200FA07F10BD91EEB030309F1FF301D
:100CD00080F087809C4240F28480A9F1020973442D
:100CE0001B1BADB2B3FBF8F008FB103345EA03441D
:100CF00000FB0AFAA24508D91EEB040400F1FF33F9
:100D00006BD2A24569D90238744440EA0940A0FB7D
:100D10000289A4EB0A044C45C2464B4654D351D039
:100D2000002E69D0B1EB0A0564EB030404FA0CFC55
:100D3000FD40FC404CEA0505C6E90054002747E7A2
:100D4000C2F1200320FA03F7954001FA02F021FADC
:100D500003F34FEA154E3843010CB3FBFEF71FFABD
:100D600085F80EFB173341EA034107FB08F38B427A
:100D700004FA02F407D9691807F1FF3C2FD28B421D
:100D80002DD9023F2944CB1A81B2B3FBFEF00EFBF2
:100D9000103341EA034100FB08F38B4207D969187D
:100DA00000F1FF3C17D28B4215D902382944C91AE9
:100DB00040EA07473BE73746304609E70746E7E69C
:100DC0001846FBE64145ABD2B8EB020A69EB0E02CE
:100DD00001381346A4E76046E9E7184695E76746F9
:100DE000D1E781467CE702382C4447E7ACF1020C9E
:100DF0002B442FE7384608E73746E9E600000000B5
:100E0000704700BF0000000000000000000000006C
:100E1000844641EA000313F003036DD1403A41D305
:100E200051F8043B40F8043B51F8043B40F8043BC4
:100E300051F8043B40F8043B51F8043B40F8043BB4
:100E400051F8043B40F8043B51F8043B40F8043BA4
:100E500051F8043B40F8043B51F8043B40F8043B94
:100E600051F8043B40F8043B51F8043B40F8043B84
:100E700051F8043B40F8043B51F8043B40F8043B74
:100E800051F8043B40F8043B51F8043B40F8043B64
:100E900051F8043B40F8043B51F8043B40F8043B54
:100EA000403ABDD2303211D351F8043B40F8043BF4
:100EB00051F8043B40F8043B51F8043B40F8043B34
:100EC00051F8043B40F8043B103AEDD20C3205D304
:100ED00051F8043B40F8043B043AF9D2043208D0FC
:100EE000D2071CBF11F8013B00F8013B01D30B886E
:100EF00003806046704700BF082A13D38B078DD04C
:100F000010F003038AD0C3F10403D21ADB071CBF1D
:100F100011F8013B00F8013B80D331F8023B20F887
:100F2000023B7BE7043AD9D3013A11F8013B00F8C0
:100F3000013BF9D20B7803704B7843708B78837048
:100F40006046704700000000000000000000000044
:100F500090F800F06DE9024520F007016FF0000CF9
:100F600010F0070491F820F040F049804FF00004A1
:100F70006FF00700D1E9002391F840F000F108007C
:100F800082FA4CF2A4FA8CF283FA4CF3A2FA8CF3B4
:100F90004BBBD1E9022382FA4CF200F10800A4FA1B
:100FA0008CF283FA4CF3A2FA8CF3E3B9D1E904236F
:100FB00082FA4CF200F10800A4FA8CF283FA4CF3A6
:100FC000A2FA8CF37BB9D1E9062301F1200182FA60
:100FD0004CF200F10800A4FA8CF283FA4CF3A2FA66
:100FE0008CF3002BC6D0002A04BF04301A4612BA74
:100FF000B2FA82F2FDE8024500EBD2007047D1E977
:10100000002304F00305C4F100004FEAC50514F005
:10101000040F91F840F00CFA05F562EA05021CBFD6
:1010200063EA050362464FF00004A9E700000000F0
:1010300001F0FF01102A2BDB10F0070F08D010F889
:10104000013B013A8B422DD010F0070F42B3F6D18D
:10105000F0B441EA012141EA014122F007047FF0A6
:1010600000070023F0E80256083C85EA010586EAFD
:10107000010685FA47F5A3FA87F586FA47F6A5FA39
:1010800087F68EB9EED1F0BC01F0FF0102F0070245
:1010900032B110F8013B013A83EA010313B1F8D1F0
:1010A0000020704701387047002D06BF35460338D1
:1010B000073815F0010F07D1013015F4807F02BF0A
:1010C000013015F4C03F0130F0BC0138704700BF5B
:1010D0004FF0FF3C06E000BF4FF0010C02E000BF04
:1010E0004FF0010C4DF804CD4FEA410C7FEA6C5CE7
:1010F0004FEA430C18BF7FEA6C5C1BD001B050EA8A
:10110000410C0CBF52EA430C91EA030F02BF90EA74
:10111000020F0020704710F1000F91EA030F58BF33
:10112000994208BF90422CBFD8176FEAE37040F095
:10113000010070474FEA410C7FEA6C5C02D150EA33
:10114000013C07D14FEA430C7FEA6C5CD6D152EAEE
:10115000033CD3D05DF8040B704700BF84461046B3
:1011600062468C461946634600E000BF01B5FFF7B2
:10117000B7FF002848BF10F1000F01BD4DF808ED82
:10118000FFF7F4FF0CBF012000205DF808FB00BF53
:101190004DF808EDFFF7EAFF34BF012000205DF8AD
:1011A00008FB00BF4DF808EDFFF7E0FF94BF0120FA
:1011B00000205DF808FB00BF4DF808EDFFF7CEFFFB
:1011C00094BF012000205DF808FB00BF4DF808ED3A
:1011D000FFF7C4FF34BF012000205DF808FB00BF0B
:1011E0004FEA410C7FEA6C5C02D150EA013C0AD123
:1011F0004FEA430C7FEA6C5C02D152EA033C02D115
:101200004FF0000070474FF00100704700000000F1
:1012100030B5094C83B023680193054600F090FC7B
:10122000019A23689A4205D1284603B0BDE83040B0
:1012300000F09EBC00F0CCF8000800200000000088
:1012400070B5194C82B0236801930D464E420728B1
:101250001BD8DFE800F01515151A1A040404084617
:1012600000F06EFC304600F083FC019A23689A423D
:1012700018D14FF4FA7002B0BDE8704001F020BF01
:10128000304600F05DFC2846EDE7084600F058FCCB
:10129000019A23689A4205D1304602B0BDE87040F9
:1012A00000F066BC00F094F8000800200000000088
:1012B000F0B53E4B3E4D1B683E4F9BB00026199348
:1012C00003F02EF901F0BCF800F092F900F068FC90
:1012D000394A3A493A4800F0D3FF00F051FE00F095
:1012E0009FFE00F0FDFE4FF4FA70FFF791FF00241F
:1012F0000FE0FFF78DFF4FF4FA7001F0E1FE20469A
:101300004FF4AF710134FFF79BFF082C4FF000063C
:101310001AD0204600F0A4FE22460346294668461D
:1013200008F0D6FD0146684600F0EAF8204600F0D5
:1013300097FE63284FF00000DBDC4FF4FA700134B5
:10134000FFF766FF082CE4D1032E05DC01364FF4CD
:10135000FA7001F0B5FECAE70020FFF759FF4FF41D
:10136000FA7001F0ADFE4FF4AF7000F0E9FB1548E4
:1013700000F0FEFB08F044FD134A144982FB0032E2
:10138000C317C3EB620303EB8303C01A00FB01F036
:1013900000F2E730A7FB0030800901F091FE4FF426
:1013A000FA70FFF735FF0126D1E700BF00080020E3
:1013B00020D20008D34D6210040800200C08002041
:1013C000F8110020A2FEFFFF6766666640420F002C
:1013D00000B5084B83B01A680192019A1B689A42C3
:1013E00005D1054803B05DF804EB01F091B8FFF7B3
:1013F000EFFF00BF0008002000D20008000000003E
:1014000030B5104D81682B680F4A83B001930B688B
:1014100023F001030B608168946A03E0936A1B1B4D
:10142000C72B09D8086810F00100F7D1019A2B6882
:101430009A4204D103B030BD4FF0FF30F6E7FFF71A
:10144000C7FF00BF00080020D018002000000000E7
:10145000F0B5284D83B02B68019302F089F801F0B4
:1014600077F9254B1E69F20715D55A69234C42F0CE
:1014700001025A612778BB1F012B2AD90522636814
:1014800022701B680BB120469847042F27D0022FEB
:1014900025D003232370B30710D5174A174C53697F
:1014A00043F0020353612378032B1DD06368DB688C
:1014B0000622227013B101211048984701F070F9FB
:1014C000019A2B689A4213D103B0BDE8F04002F0B4
:1014D000E7BF019A2B689A420AD103B0F0BD0223FC
:1014E0002370B307EAD5D8E72046FFF789FFDDE789
:1014F000FFF76EFF000800200000055004120020D6
:1015000010B50A4B82B01A680192019C1B689C427C
:101510000AD1074B1C6824680A4601461846234630
:1015200002B0BDE810401847FFF752FF0008002046
:10153000F426002000000000000000000000000071
:101540002DE9F043254E83B034680194042A9DF8B8
:101550002890144605460F46984639D9B9F1000F30
:1015600014BF00224FF08052640002EB0863013C7C
:101570001C4405F00F0527F01F07202383F3118873
:1015800002F02EF83D4301F063F8154B1035DD6095
:101590001C6101F07DF802F03BF8124B1A689A4288
:1015A00004D0996993688A689A420DD3002383F323
:1015B0001188BFF36F8FBFF34F8F019A33689A4240
:1015C0000AD103B0BDE8F083074800F0A1FFEDE7C2
:1015D000064800F09DFFC1E7FFF7FAFE0008002073
:1015E00090ED00E0D0180020C0D20008A0D2000882
:1015F00030B5224D224C2B68224A85B00393636894
:1016000043F004036360536A43F48033536220233E
:1016100083F3118801F0E4FF01F01AF817221A4B46
:10162000E260236101F034F801F0F2FF174B1A6811
:101630009A4204D0996993688A689A4218D3002024
:1016400080F31188BFF36F8FBFF34F8F03231D22E9
:1016500000904FF00051FFF773FF094A536843F0C1
:1016600001035360039A2B689A4205D105B030BD3F
:10167000074800F04DFFE2E7FFF7AAFE0008002050
:1016800090ED00E000ED00E009000010D01800200F
:10169000C0D20008000000000000000000000000B0
:1016A00070B51A4D1A4C1B4E0FCD0FC49EB02A6850
:1016B000336822801D93EFF30981682203A8FFF7A6
:1016C000A7FB154B9D6AAA0714D4EB0708D5124B4C
:1016D00008995B6B114A00910D48802108F0B0FB1E
:1016E0001D9A33689A420FD109481EB0BDE8704078
:1016F00000F00EBF099A5B6B0092A4F11000084A3B
:10170000802108F09DFBE0E7FFF762FE84D200082D
:10171000181200200008002000ED00E060D2000850
:1017200040D200080000000000000000000000009F
:1017300000B51F4B0278196883B00191E2B11D4AD0
:101740004FF4005111834278EAB11A4A4FF48051A4
:1017500011838278F2B1174A4FF480411183C27825
:10176000FAB9144A4FF400415183019A1B689A4216
:101770001CD103B05DF804FB0E4A4FF400515183B5
:101780004278002AE1D10B4A4FF48051518382788C
:10179000002AE0D1074A4FF480415183C278002AE1
:1017A000DFD0044A4FF400411183DEE7FFF710FE5B
:1017B00000080020001002400000000000000000AF
:1017C00000B51F4B0278196883B00191E2B11D4A40
:1017D0004FF4007111834278EAB11A4A4FF48071D4
:1017E00011838278F2B1174A4FF400611183C278F5
:1017F000FAB9144A4FF480615183019A1B689A42E6
:101800001CD103B05DF804FB0E4A4FF40071518304
:101810004278002AE1D10B4A4FF4807151838278DB
:10182000002AE0D1074A4FF400615183C278002AB0
:10183000DFD0044A4FF480611183DEE7FFF7C8FD73
:10184000000800200010024000000000000000001E
:1018500030B50C4A0C4B116883B04FF40055019120
:101860004FF480544FF400414FF480405D835C831B
:101870005883598301991368994201D103B030BD4F
:10188000FFF7A6FD00080020001002400000000045
:1018900030B50C4A0C4B116883B04FF400750191C0
:1018A0004FF480744FF480614FF400605D835C837B
:1018B0005883598301991368994201D103B030BD0F
:1018C000FFF786FD00080020001002400000000025
:1018D00010B50B4C0B48236882B09922002101936C
:1018E00003F016FA019A23689A4206D105480021AE
:1018F00002B0BDE8104003F0F3BAFFF769FD00BF86
:1019000000080020A02600200000000000000000C9
:1019100010B50B4C0B48236882B09922002101932B
:1019200003F0F6F9019A23689A4206D1054800218E
:1019300002B0BDE8104003F0D3BAFFF749FD00BF85
:1019400000080020BC26002000000000000000006D
:1019500000B5084B83B01A680192019A1B689A423D
:1019600006D10548002103B05DF804EB03F020BA6E
:10197000FFF72EFD00080020A02600200000000038
:1019800000B5084B83B01A680192019A1B689A420D
:1019900006D10548002103B05DF804EB03F008BA56
:1019A000FFF716FD00080020BC2600200000000004
:1019B00070B51A4C1A4E2378326882B0022B01920D
:1019C000A26811D165781748013505F0070500EBCD
:1019D0008500904763686570013B6360019A3368D6
:1019E0009A4219D102B070BD012B08D00199336819
:1019F000994211D10C4802B0BDE87040104765789B
:101A00000848013D05F0070500EB85009047636835
:101A1000657001336360E1E7FFF7DAFCB412002080
:101A20000008002060D3000850D300080000000028
:101A300070B51A4C1A4E2378326882B0012B01928D
:101A4000A26811D165781748013505F0070500EB4C
:101A5000850090476368657001336360019A33685D
:101A60009A4219D102B070BD022B08D00199336897
:101A7000994211D10C4802B0BDE87040104765781A
:101A80000848013D05F0070500EB850090476368B5
:101A90006570013B6360E1E7FFF79AFC9812002054
:101AA0000008002060D3000850D3000800000000A8
:101AB00030B5204D85B02B68039340F24C439942DA
:101AC000044628DCA3F69803994212DB4B00002B56
:101AD00081612BD10370036998474FF47A71039A9F
:101AE0002B689A4220D1606905B0BDE8304003F010
:101AF000C7B88361104B02225B42227040F28922F8
:101B000093420E4991FBF3F189B208DC0191E3683D
:101B100098470199E3E70122836102702D21019129
:101B2000236998470199DAE7FFF752FCE3DD0122C8
:101B30000270E3E70008002068F7FFFFA0860100BD
:101B400000B5084B83B01A680192019A1B689A424B
:101B500006D10146044803B05DF804EBFFF7A8BFC7
:101B6000FFF736FC0008002098120020000000005B
:101B700000B5084B83B01A680192019A1B689A421B
:101B800006D10146044803B05DF804EBFFF790BFAF
:101B9000FFF71EFC00080020B41200200000000027
:101BA00070B51D4E1D4A1E4B30681E491E4C91607B
:101BB00082B00021D46001901C4C1D481D4D9D60D9
:101BC000117051705160106154611B481B4A1C4DCB
:101BD000D8601C48197059705960C3E90425FFF793
:101BE000A7FD1848FFF7ECFD1749204602F0F8FF63
:101BF000204603F02DF92846144902F0F1FF019A1E
:101C000033689A4205D1284602B0BDE8704003F01F
:101C10001FB9FFF7DDFB00BF00080020B412002051
:101C20009812002031170008D1180008A0260020C3
:101C300051190008C117000811190008811900087E
:101C4000BC26002050D3000810D30008D0D20008D2
:101C50000A490B4B09680B4A82B0202001914021B0
:101C600058834FF4806559834FF400644FF48040EB
:101C700004215D835C8358835183FEE700080020C4
:101C8000000C0240000402400000000000000000C0
:101C900010B51E491E4A0B78106882B0013B0190B6
:101CA000072B0AD8DFE803F012151C1F26290F04A2
:101CB00018480824012304830B7001991368994282
:101CC00021D102B010BD08230B70F6E702230B7080
:101CD000F3E711484FF48054032304830B70ECE7BF
:101CE00004230B70E9E70C484FF480440523048378
:101CF0000B70E2E706230B70DFE706480424072396
:101D000004830B70D9E7FFF763FB00BF5016002078
:101D10000008002000100240000402400000000003
:101D200030B50C4B0C4918680C4A83B04FF4804511
:101D300001904FF480504883042408204D8354833D
:101D40005083019A1B689A4201D103B030BDFFF75E
:101D50003FFB00BF000800200004024000100240CA
:101D60002DE9F04F504B514A9B6951499961A5B0FB
:101D700007AE05AD80231768009331462A4600243C
:101D80000CA84C4B2397CDE90766CDE90555CDE965
:101D900009440B9400F08CFA0CA9474A4748454C7B
:101DA000474DDFF83C81DFF83CB1DFF83CA100F0A3
:101DB000A7FA04F11C0604F16007A146504601F0A1
:101DC000AFFC2B682A6A23602B6BA260E3606A6910
:101DD0006B6A29696261A361AA68AB69616022626A
:101DE0006968AA6B6362EB682161E262696BEA6A07
:101DF0002363EB6BE161A96AA162C4E90E23E9697F
:101E00006163304900204A6A51F8043F9A4296BF04
:101E10009B1A08640B64B142F5D1802249460CA894
:101E200000F09EFA98F80030002BC7D09BF80030E5
:101E300033B3012BC2D1DFF8B4C02348614650F858
:101E4000042B51F8043FB84213440B60F7D11F4AEA
:101E500013780133DBB2642B1370AFD11C495CF8EB
:101E6000043F1C4A82FB0302DB17C3EB621341F8F9
:101E7000043B194B9C45F2D1002388F800309DE7C4
:101E8000194620221248039307F06AFF039B134868
:101E90001946202207F064FF0C49039B0B700122B6
:101EA0008BF800208AE700BFD0180020000800202F
:101EB00080D3000854130020C0D30008F81100207C
:101EC000F012002050130020941300203113002042
:101ED000B41300201F85EB51501300203413002051
:101EE000301300203213002020080020301300207F
:101EF00070B502691E4D52882B6882B006460C46AA
:101F00001C4801939200002107F02AFF33695B8887
:101F10005BB1184AA11E002331F8020F42F8040BEE
:101F20003069408801339842F6D8202383F3118822
:101F300001F086FB00F0CCFB00F05AFC0E488368F1
:101F4000002B0FDD00F0E4FB01F092FB002383F394
:101F50001188019A2B68094901209A42087004D11E
:101F600002B070BD01F014FCECE7FFF731FA00BFDE
:101F700000080020F0120020200800205016002049
:101F800070B51F4D1F4C2E78236884B0012E03932B
:101F900005D0039A23689A422FD104B070BD002166
:101FA000284602F0D5FB284602F092FC334628462C
:101FB000154A164902F04CFC1549164802F010FE6D
:101FC0004FF496720021134802F0A2FE002111483E
:101FD00002F086FF0F4802F03BFF31464FF4827259
:101FE0000C4802F095FE0023009340220A4B0B4858
:101FF0004FF41E7101F00CF8CBE7FFF7E9F900BFD1
:10200000F41F002000080020D012002090D3000808
:10201000D0D3000884260020611D0008D8130020BA
:1020200030B50C4D0C4A2B680C4C83B00021019349
:10203000012311702370142001F042F82378002B43
:10204000F9D1019A2B689A4201D103B030BDFFF754
:10205000BFF900BF00080020321300203013002019
:1020600000B50A4B83B01A68019207289BBF084A43
:102070001030002052F82000019A1B689A4202D1C9
:1020800003B05DF804FBFFF7A3F900BF00080020D0
:1020900054130020000000000000000000000000B9
:1020A00000B50A4B0A481B680A4C87B0694605937D
:1020B00001224FF4F07301F0B3FD012001F098FE0E
:1020C000684601F0F5FD2060F7E700BF000800203A
:1020D000F826002054160020000000000000000038
:1020E00010B50C4C0C4923680C4884B0039303F0E2
:1020F000DFFB002300934022094B0A484FF41E7176
:1021000000F086FF039A23689A4201D104B010BD03
:10211000FFF75EF9000800202C080020F4260020BC
:10212000A120000858160020000000000000000058
:1021300000B5084B83B01A680192019A1B689A4255
:1021400005D1054803B05DF804EB01F049BCFFF789
:102150003FF900BF00080020380800200000000000
:1021600000B5084B83B01A680192019A1B689A4225
:1021700005D1054803B05DF804EB01F069BCFFF739
:1021800027F900BF000800203808002000000000E8
:1021900070B50D4C82B0236801930D1E06460DDD0F
:1021A000284602F0F5F818B90C2333604FF0FF30E1
:1021B000019A23689A4205D102B070BD034800F02D
:1021C000A7F9EDE7FFF704F90008002010D4000894
:1021D00000B5064B83B01A680192019A1B689A42B7
:1021E00002D103B05DF804FBFFF7F2F8000800200D
:1021F00000B5074B83B01A680192019A1B689A4296
:1022000004D103B05DF804EB01F0EABBFFF7E0F89E
:102210000008002000000000000000000000000096
:1022200000B5074B83B01A680192019A1B689A4265
:1022300004D103B05DF804EB01F00ABCFFF7C8F865
:102240000008002000000000000000000000000066
:1022500000B5074B83B01A680192019A1B689A4235
:1022600004D103B05DF804EB01F0A2BCFFF7B0F8B5
:102270000008002000000000000000000000000036
:1022800010B5084B82B01C68019400240460019CC6
:102290001B689C42C0E9011201D102B010BDFFF7DA
:1022A00097F800BF000800200000000000000000B8
:1022B0002DE9F0430E4D83B02C68019404469946F5
:1022C0000F46164610304C220021DDF8288007F01A
:1022D00047FDC4F80090019A2B68E6609A42C4E971
:1022E000018702D103B0BDE8F083FFF771F800BFAA
:1022F00000080020000000000000000000000000B6
:10230000F0B5144E83B001F1100317463268019204
:102310000446412218460D46002107F021FD3946AA
:10232000402207F0FDFD6068FFF762FF236803B1FC
:10233000AB652560A068FFF78BFF019A33689A426E
:1023400005D1606803B0BDE8F040FFF769BFFFF753
:102350003FF800BF0008002000000000000000005F
:10236000F0B51C4E436883B0054693423068019037
:1023700006D20020019A33689A4229D103B0F0BDF9
:1023800014460F46A868FFF733FF224639462868EF
:10239000FEF73EFD012385F85130E868FFF758FF4E
:1023A0006C6D84B123681868FFF722FF23689D6075
:1023B00023685868FFF74CFF23681868FFF730FF61
:1023C0006468002CEED1A868FFF72AFF0120D1E74E
:1023D000FEF7FEFF000800200000000000000000E3
:1023E00000B5064B83B01A680192019A1B689A42A5
:1023F00002D103B05DF804FBFEF7EAFF00080020FD
:10240000024B82B01B680193FEE700BF000800206A
:1024100000B5044B04481B6883B0019300F078F8C2
:10242000FEE700BF0008002020D4000800000000E4
:10243000024B82B01B680193FEE700BF000800203A
:10244000F0B5294E294B3268294885B00024039203
:102450009C60D968274A4FF6FF0529400A43DA6095
:10246000C2682549254D42F08072C2600A6842F078
:1024700001020A6010202022D87783F8222000F081
:10248000DFFA00F045FA00F0FBFF01F059FF01F020
:10249000C7FF01F04DF800F0FBF9402105F5886019
:1024A00000F01EFD0127164BC36180F82070A86163
:1024B00000F0A6F884F3118862B6AB69114A9A61FC
:1024C0004FF4C4713A46104B009405F59D6000F03E
:1024D0009FFD039A33680D4981619A4201D105B08D
:1024E000F0BDFEF775FF00BF0008002000ED00E022
:1024F000F0ED00E00003FA05001000E0D018002025
:1025000000040020A0D500083124000840D40008B1
:1025100000B5054B83B01B680193044672B6FFF704
:1025200097FB024BDC62FEE700080020D018002079
:102530002DE9F047DFF890A0224DDAF8003082B0A4
:10254000019300F055F9AB6993F8232012B1013AD9
:1025500083F823205A6ADFF8748001325A6200F04F
:1025600047F9AB6AEA6901334245AB6220D0936810
:10257000013B9360EC69A668D6B94FF02009236847
:10258000E768E660C3F804802368EB6100F0C0F8F8
:1025900001F06EF886F311882069B84789F3118835
:1025A00001F04EF800F094F8EC69A368002BE6D037
:1025B000019ADAF800309A4202D102B0BDE8F08701
:1025C000FEF706FFD018002000080020EC180020BD
:1025D00010B5094C094A236882B0019351685368C9
:1025E0005B1A9842FBD8019A23689A4201D102B043
:1025F00010BDFEF7EDFE00BF00080020001000E057
:1026000000B50E4A0E4B116B186883B0019009B9E2
:10261000526B4AB1019A1B689A420CD1094803B027
:102620005DF804EBFFF774BF019A1B689A4202D170
:1026300003B05DF804FBFEF7CBFE00BFD01800200E
:102640000008002050D40008000000000000000036
:1026500030B50B4C0B4D236B2A6883B001920BB93C
:10266000636B13B10848FFF753FF019A2B680121F0
:102670009A42616301D103B030BDFEF7A9FE00BFED
:10268000D01800200008002080D4000800000000BE
:1026900030B50C4C0C4D236B2A6883B0019253B9B2
:1026A000636B002B07DD019A2B6800219A4261635E
:1026B00005D103B030BD0548FFF72AFFF3E7FEF769
:1026C00087FE00BFD018002000080020A0D400081A
:1026D00030B50B4C0B4D236B2A6883B0002B019255
:1026E00001DD636B13B10848FFF712FF019A2B68F5
:1026F00001219A42616301D103B030BDFEF768FE4B
:10270000D01800200008002090D40008000000002D
:1027100030B50C4C0C4D236B2A6883B0002B019212
:102720000ADD636B002B07DD019A2B6800219A42BA
:10273000616305D103B030BD0448FFF7E9FEF3E75C
:10274000FEF746FED018002000080020B0D4000894
:1027500030B50F4D83B02B680193202383F311888C
:102760000C4C236B002B01DB626B1AB10A48FFF79C
:10277000CFFE236B01332363002383F31188019A77
:102780002B689A4201D103B030BDFEF721FE00BF95
:1027900000080020D018002060D4000800000000CD
:1027A00030B50F4D83B02B680193202383F311883C
:1027B0000C4C236B002B01DD626B1AB10A48FFF74A
:1027C000A7FE236B013B2363002383F31188019A47
:1027D0002B689A4201D103B030BDFEF7F9FD00BF6E
:1027E00000080020D018002070D40008000000006D
:1027F00000B50F4A0F4B116B186883B00029019088
:1028000009DB526B002A06DD019A1B689A420CD143
:1028100003B05DF804FB019A1B689A4205D1064893
:1028200003B05DF804EBFFF773BEFEF7D1FD00BF08
:10283000D018002000080020C0D4000800000000CC
:1028400000B50E4A0E4B116B186883B0019049B960
:10285000526B002A06DD019A1B689A420CD103B024
:102860005DF804FB019A1B689A4205D1054803B044
:102870005DF804EBFFF74CBEFEF7AAFDD018002070
:1028800000080020D0D40008000000000000000074
:1028900010B5084A084B116882B040240191019993
:1028A000126818199142C3E90E4001D102B010BD5F
:1028B000FEF78EFD00080020D01800200000000068
:1028C00010B51149114B0A6882B00192DA6B9C6A0B
:1028D0001460DA6B9C695460DA6B846A9460DA6B1A
:1028E00090F820001073DA6B03F588601032824292
:1028F00028BF03F14002DA63019A0B689A4201D1C2
:1029000002B010BDFEF764FD00080020D0180020C2
:1029100010B50B4A0B4B116882B04FF0FF34019198
:1029200000219962019811685C6203F11C028842DF
:10293000C3E9072201D102B010BDFEF749FD00BF77
:1029400000080020D0180020000000000000000057
:102950002DE9F041184E82B00546306801900C46D2
:1029600017469846FFF744FF05B3FFB1F4B1C5E938
:1029700003781248C3699A68944204D91B68A41A60
:102980009A68A242FAD32B605A686A6015605D604B
:10299000AC609968019D3268091B95424FF0FF3485
:1029A0009960446206D102B0BDE8F0810448FFF7A7
:1029B000AFFDDCE7FEF70CFD00080020D01800207A
:1029C000E0D400080000000000000000000000004B
:1029D00030B5164D83B004462B680193FFF708FF0E
:1029E000ECB1E368BBB12268A06893680199034425
:1029F0009360D4E900231A6020682B680C4A65684C
:102A0000456099424FF000054FF0FF30E56050629D
:102A100009D103B030BD0748FFF77AFDE3E7054869
:102A2000FFF776FDDDE7FEF7D3FC00BF00080020CE
:102A3000D0180020F0D400080000000000000000C2
:102A400000B50A4A0A4B11681B6083B0002001914F
:102A5000019912685B609142C3E90433986002D126
:102A600003B05DF804FBFEF7B3FC00BF00080020D4
:102A7000D01800200000000000000000000000004E
:102A800030B5164D83B004462B680193FFF7B0FEB6
:102A9000ECB194F82030B3B10F2B14D00022A16810
:102AA0000F4B84F820201B689A688A42FBD223606F
:102AB0005A686260146001992A685C6091422046FD
:102AC00009D103B030BD0748FFF722FDE6E705480E
:102AD000FFF71EFDDDE7FEF77BFC00BF00080020CE
:102AE000D018002000D50008000000000000000001
:102AF00070B5204D82B02B6801930446202383F3E8
:102B0000118800F09DFDFFF7E3FD94F82030072BBE
:102B100011D8DFE803F0161010230A04100AA66A81
:102B2000FFF766FEB3680133B360D4E900231A608F
:102B3000D4E900325A604FF0FF33A3622046FFF71A
:102B40009FFFFFF7E5FD00F093FD002383F311885D
:102B5000019A2B689A420BD102B070BDA36A002281
:102B60001A604FF0FF33A3622046FFF789FFE8E7C2
:102B7000FEF72EFC0008002000000000000000000E
:102B8000F0B5194E194C336883B007460193FFF72F
:102B900057FEA569236885F82070142285F8232044
:102BA0001A68226001215460284683F82010A3612E
:102BB000FFF786FE2946A06900F0F2FCEFF30983D7
:102BC000EA69643B9A4202D90948FFF7A1FC019ADD
:102BD00033689A4206D1A069294603B0BDE8F040A7
:102BE000FDF766BBFEF7F4FB00080020D0180020BC
:102BF00010D50008000000000000000000000000E8
:102C0000F0B5154C87B0236805930E460746FFF7CD
:102C100017FE731C18D0114D114AAB693146684636
:102C2000FFF796FE3846FFF7ABFFFFF7E1FD039B8A
:102C300013B16846FFF7CCFE059A2368A9699A424A
:102C4000886A06D107B0F0BD3846FFF799FF034DFB
:102C5000F2E7FEF7BDFB00BF00080020D0180020FF
:102C6000F12A000800000000000000000000000041
:102C7000F0B51E4D1E4E2B6883B0044601930F46DF
:102C8000FFF7DEFDB069A7628368A2689A421DD98A
:102C9000FFF7F6FE0123074684F82030B461FFF702
:102CA0000FFE3946204600F07BFCEFF30983FA69FA
:102CB000643B9A4214D8019A2B689A4214D139463F
:102CC000204603B0BDE8F040FDF7F2BA019A2B6848
:102CD0009A4209D1204603B0BDE8F040FFF7D0BECC
:102CE0000448FFF715FCE6E7FEF772FB000800203A
:102CF000D018002010D500080000000000000000DF
:102D000010B50E490E4B8A69086892F823101C68AA
:102D10008068926882B0019449B9904234BF002023
:102D20000120019A1B689A4206D102B010BD904260
:102D300094BF00200120F4E7FEF74AFBD0180020E2
:102D4000000800200000000000000000000000005B
:102D500070B5184C184E2368A5691A682260546033
:102D6000012283F8202082B01422316885F82320C4
:102D70002846A3610191FFF783FE2846FFF7A0FDD7
:102D80002946A06900F00CFCEFF30983EA69643B73
:102D90009A4202D90948FFF7BBFB019A33689A426D
:102DA00006D1A069294602B0BDE87040FDF780BA9F
:102DB000FEF70EFBD01800200008002010D50008F8
:102DC00070B51C4D1C4E2A68AC6913682B6001213C
:102DD00082B05D60002082F82010AA613268A1688C
:102DE00084F82000019200E01B689A688A42FBD8B0
:102DF00023605A686260204614605C60FFF760FDE3
:102E00002146A86900F0CCFBEFF30983E269643B3B
:102E10009A4202D90948FFF77BFB019A33689A422C
:102E200006D1A869214602B0BDE87040FDF740BA5E
:102E3000FEF7CEFAD01800200008002010D50008B8
:102E400010B50F4C82B023680193FFF7F9FCFFF730
:102E5000CFFC0C4B1A689B6992689B689A42019A56
:102E6000236803D89A4208D102B010BD9A4204D117
:102E700002B0BDE81040FFF7A3BFFEF7A9FA00BFFC
:102E800000080020D0180020000000000000000012
:102E900000B50E4A0E4B9269196892F8232083B050
:102EA000019142B1019A1B689A420DD103B05DF8BD
:102EB00004EBFFF785BF019A1B689A4204D103B067
:102EC0005DF804EBFFF744BFFEF782FAD01800204C
:102ED00000080020000000000000000000000000CA
:102EE000F0B51A4A1A4D02610446816083B014237A
:102EF00050692E68616484F8233002270023012181
:102F0000278484F82210C4E90F3304F16801A36117
:102F1000019604F12C07636204F1500604F13003BA
:102F200060610461C4E90C33E1613046E7625461D9
:102F300000F03EFA304600F05BFA019A2B689A42A4
:102F400002D1204603B0F0BDFEF742FAD0180020AF
:102F50000008002000000000000000000000000049
:102F600010B5094B82B01C680194884203D200F866
:102F7000012B8142FBD1019A1B689A4201D102B018
:102F800010BDFEF725FA00BF000800200000000079
:102F90002DE9F043184E83B0346801940546DDF8FE
:102FA00028900C4617469846FFF722FC15B1B4F559
:102FB000BC7F19D21148FFF7ABFAA4F16401294490
:102FC000E960C1F84080EB68019AC3F84490336827
:102FD000E9680B4808669A420CD13946284603B086
:102FE000BDE8F043FFF77CBF7F2FE3D8B8F1000FB7
:102FF000E3D1DFE7FEF7ECF90008002060D5000818
:10300000C9020008000000000000000000000000ED
:103010002DE9F04FDFF8A48087B0D8F80040DDF844
:103020004090059407468A46934600F16806044698
:10303000FF2504F8015BA642FBD107EB0A05A54278
:1030400004D9552604F8016BA542FBD10393202235
:1030500082F3118800F0C4FAFFF7FAFA039BCDF867
:1030600000905A4651463846FFF792FF0021044629
:10307000FFF7FEFDFFF70CFB00F0CAFA0D4B1A68D4
:103080009A4204D0996993688A689A420BD30023C4
:1030900083F31188059AD8F800309A42204606D169
:1030A00007B0BDE8F08F0448FFF732FAEFE7FEF70C
:1030B0008FF900BFD018002020D50008000800209C
:1030C00030B5184C83B0236801930546202383F361
:1030D000118800F085FAFFF7BBFA15B91248FFF71F
:1030E00017FA29460820FFF78BFDFFF7D1FA00F009
:1030F0008FFA0E4B1A689A4204D0996993688A68CD
:103100009A4208D3002383F31188019A23689A42D4
:1031100005D103B030BD0648FFF7FAF9F2E7FEF734
:1031200057F900BF0008002030D50008D018002053
:1031300020D5000800000000000000000000000092
:1031400070B5164B164E9C693268E36AA06282B075
:1031500004F12C05AB42019207D01A68E2621846CE
:10316000FFF78EFCE36AAB42F7D194F821309B075E
:1031700005D1D4E904231A61D4E904325A610F203D
:10318000FFF7FEFC019A33689A4205D1054802B068
:10319000BDE87040FFF7BCB9FEF71AF9D01800205F
:1031A0000008002070D500080000000000000000AA
:1031B00030B50C4C83B0236801930546202383F37C
:1031C000118800F00DFAFFF743FA019A23689A423A
:1031D00005D1284603B0BDE83040FFF7B1BFFEF788
:1031E000F7F800BF00080020000000000000000009
:1031F000F0B50D4D0D4E03682A68B76983B00446DB
:10320000019213B10A48FFF783F927600320BC62DB
:10321000FFF7B6FC019A2B68B1699A42886A01D11E
:1032200003B0F0BDFEF7D4F800080020D01800204D
:1032300080D5000800000000000000000000000031
:10324000F0B5124D04682B6883B00193B4B194F8C3
:103250002030032B06460F460CD100233360019A21
:103260002B68A7629A420FD1204603B0BDE8F04018
:10327000FFF706BC0648FFF74BF9EEE7019A2B680B
:103280009A4201D103B0F0BDFEF7A2F80008002079
:1032900090D50008000000000000000000000000C1
:1032A00030B5104A83B01368019381B10E4B019D74
:1032B0009B69186044685C602360126843609542B3
:1032C0000DD1042003B0BDE83040FFF799BC01994F
:1032D000136899424FF0FF3001D103B030BDFEF7C3
:1032E00077F800BF00080020D01800200000000080
:1032F00070B5124D04682B6882B0A042019315D0BE
:1033000023680360586094F82030042B0E4602D0E6
:103310000B48FFF7FDF8019A2B68A6629A420BD181
:10332000204602B0BDE87040FFF7AABB019A2B68A7
:103330009A4201D102B070BDFEF74AF800080020A1
:1033400040D5000800000000000000000000000060
:103350002DE9F041DFF850800468D8F8003082B0E1
:10336000A042019313D00F4F05460E4623682B60F1
:103370005D6094F82030042B02D03846FFF7C8F87F
:10338000A6622046FFF77CFB2C68A542EED1019A8D
:10339000D8F800309A4202D102B0BDE8F081FEF7C1
:1033A00017F800BF40D5000800080020000000000A
:1033B00030B50B4B83B01A6801924FF0FF320260B8
:1033C00001991A680024002300259142C0E90445B0
:1033D000C0E90133C36001D103B030BDFDF7F8FF90
:1033E00000080020000000000000000000000000B5
:1033F00000B5084B084A196883B001915168019AD9
:103400001B6881609A4202D103B05DF804FBFDF7AE
:10341000DFFF00BF00080020001000E000000000F7
:10342000F0B51449144B0A68846883B00192134ABA
:103430005B68D2F8A864C2681B1BD0E9044501325E
:103440009B1BC26042688360E61845F10007934207
:10345000C0E9046709D80268934238BF0360019A43
:103460000B689A4203D103B0F0BD4360F7E7FDF764
:10347000AFFF00BF00080020001000E0D0180020BF
:1034800030B5114D114C2B6889B04FF0FF310793C7
:10349000002300226846C4F8A834CDE90133039321
:1034A0000023CDE904230091FFF7A2FF6846FFF750
:1034B000B7FF079A2B680299C4F8A8149A4201D161
:1034C00009B030BDFDF784FF00080020D0180020AF
:1034D0002DE97048134E144B326883B001925B683B
:1034E0008B60D0E902411B1BD0E90445426814EB14
:1034F000030B45F1000C01319342C0E90231C0E9F0
:1035000004BC0AD80268934238BF0360019A33684A
:103510009A4204D103B0BDE870884360F6E7FDF736
:1035200057FF00BF00080020001000E0000000006E
:1035300030B50D4D0D4C2B6883B004F597600193A9
:103540000023C4F8B034C4F8B434FFF731FF019A53
:103550002B689A4206D104F59A6003B0BDE830406A
:10356000FFF726BFFDF734FF00080020D018002029
:1035700000B50949094A0B6883B001930198D2F854
:10358000B034096801338842C2F8B03402D103B0C4
:103590005DF804FBFDF71CFF00080020D018002098
:1035A00070B50D4C0D4A236882B00193019DD2F88D
:1035B000B43424680133A542C2F8B43409D10E46AC
:1035C00000F1500106F1500002B0BDE87040FFF775
:1035D0007FBFFDF7FDFE00BF00080020D0180020CF
:1035E00000B5084B83B01A680192019A1B689A4291
:1035F00005D1054803B05DF804EBFFF7F9BEFDF710
:10360000E7FE00BF00080020881D00200000000029
:1036100000B5084B83B01A680192019A1B689A4260
:1036200005D1054803B05DF804EBFFF7F9BEFDF7DF
:10363000CFFE00BF00080020881D00200000000011
:1036400000B5084B83B01A680192019A1B689A4230
:1036500005D1054803B05DF804EBFFF7C9BEFDF7DF
:10366000B7FE00BF00080020A01D002000000000E1
:1036700000B5084B83B01A680192019A1B689A4200
:1036800005D1054803B05DF804EBFFF7C9BEFDF7AF
:103690009FFE00BF00080020A01D002000000000C9
:1036A00070B51B4D82B004462B680193FFF7C8F834
:1036B00044B3A3682268002B10DBA24203D0154854
:1036C000FEF726FFA368013B002BA3600CDB002064
:1036D000019A2B689A4219D102B070BDA242EED075
:1036E000013B002BA360F2DA0B4EB3699C621C60B5
:1036F00062685A60052013606360FFF741FAB3699E
:10370000986AE5E70348FEF703FFD2E7FDF760FE9E
:1037100000080020D0D50008D018002000000000CC
:1037200030B5164C83B0236801930546202383F3FC
:103730001188FFF755FFFEF78BFF2846FFF7B0FF14
:103740000546FEF7A5FFFFF763FF0D4B1A689A4287
:1037500004D0996993688A689A4209D3002383F355
:103760001188019A23689A42284605D103B030BDDA
:103770000448FEF7CDFEF1E7FDF72AFE0008002021
:10378000D0180020C0D50008000000000000000094
:1037900030B51C4D83B004462B680193FFF728F821
:1037A0004CB3A3682268002B0FDBA24203D016485B
:1037B000FEF7AEFEA3680133002BA3600BDD019A78
:1037C0002B689A421BD103B030BDA242EFD0013327
:1037D000002BA360F3DC20680199036823602A684A
:1037E0005C6091424FF00003836208D103B0BDE8F2
:1037F0003040FFF745B90448FEF78AFED1E7FDF7F0
:10380000E7FD00BF00080020E0D500080000000030
:1038100030B50B4D83B02B680193044650B1246042
:1038200001992A68646000239142A360236105D155
:1038300003B030BD0348FEF76BFEF0E7FDF7C8FDAF
:103840000008002000D60008000000000000000072
:10385000F0B55D4E5D4B32689D6983B004460192C0
:10386000FEF7EEFF002C00F08480A068236900289A
:1038700043D0002B40F39780854276D0AA688368B6
:103880009A4208D990F820308260062B40D0072B4E
:1038900073D0002B5DD02746234603E09968AA68C1
:1038A000914233D31B689C42F8D12F607B686B60D8
:1038B00006201D607D60AC62FFF762F9A368AB4231
:1038C00002D04348FEF724FE2B6CA34202D04048AE
:1038D000FEF71EFE2369012B05D1019A33689A4237
:1038E0006FD103B0F0BD019A33689A4269D138486C
:1038F00003B0BDE8F040FEF70BBE002B58D10133FA
:10390000A56023612B6CE3602C64E6E71F46CCE7DF
:10391000D0E900231A60D0E900325A60876A3B463A
:1039200003E099688268914247D31B689F42F8D1AF
:1039300007607B68436018607860836AAA6898684B
:1039400083689342A7D290F820308260062B9ED1E4
:10395000DEE7D0E90023012180F820101A60D0E9C9
:1039600000325A60FFF78CF895E723690133236131
:10397000B3E71748FEF7CCFD77E7D0E900231A60DC
:10398000D0E900325A60876A3B4603E09968826852
:10399000914214D31B689F42F8D107607B68436053
:1039A0001860786077E70A48FEF7B2FDA06863E721
:1039B0000748FEF7ADFD2369A1E71F46B8E71F469C
:1039C000EBE7FDF705FD00BF00080020D018002040
:1039D00010D60008000000000000000000000000F9
:1039E00030B5154C83B0236801930546202383F33B
:1039F0001188FFF7F5FDFEF72BFE2846FFF728FF9D
:103A0000FEF746FEFFF704FE0C4B1A689A4204D0FC
:103A1000996993688A689A4208D3002383F31188CE
:103A2000019A23689A4205D103B030BD0448FEF7DD
:103A30006FFDF2E7FDF7CCFC00080020D018002055
:103A4000F0D50008000000000000000000000000A9
:103A50002DE9F043DFF800813C4FD8F80030BE6913
:103A600083B005460193002864D0202383F3118896
:103A7000FFF7B6FDFEF7ECFD336C002B5ED09B68C4
:103A8000B34202D03248FEF743FD2B69002B49DDDB
:103A9000013B2B615BBB336CAB4202D02C48FEF781
:103AA00037FDEB683364FEF7CBFE2B689D423ED0BA
:103AB000D6E910495CB1FEF7C3FE23689C4203D0EF
:103AC0009B68994538BF9946E468002CF3D1C6F845
:103AD00008902B6801222A611A682A605560AB6041
:103AE0001A6CEA6018461D640021FFF7C1F8FEF762
:103AF000CFFDFFF78DFD3B68BB4204D0BA699B68E0
:103B000092689A420AD3002383F31188019AD8F865
:103B100000309A4217D103B0BDE8F0830D48FEF79C
:103B2000F7FCF0E70A48FEF7F3FC2B69B0E7002347
:103B3000AB60DCE70648FEF7EBFC96E70448FEF7CF
:103B4000E7FC336C9BE7FDF743FC00BFD018002077
:103B500020D60008F0D50008000800200000000072
:103B600070B5114E82B0044633680193FEF740FEF3
:103B70009CB12068A0420AD06FF001050368236061
:103B80005C60FEF77DFF85622068A042F6D1019A55
:103B900033689A4205D102B070BD0448FEF7B8FC04
:103BA000E7E7FDF715FC00BF0008002040D600083D
:103BB00030B5164C83B0236801930546202383F368
:103BC0001188FFF70DFDFEF743FD2846FFF7C8FFFC
:103BD000FFF736F9FEF75CFDFFF71AFD0C4B1A688C
:103BE0009A4204D0996993688A689A4208D300235C
:103BF00083F31188019A23689A4205D103B030BD3E
:103C00000448FEF785FCF2E7FDF7E2FB0008002020
:103C1000D018002030D6000800000000000000008E
:103C20002DE9F0431D4F83B03C68019491460C464A
:103C30009846064660B359B3202383F31188FFF7F3
:103C4000CFFC174DFEF704FD336823603460AB6989
:103C500063600023C4E90338C4F80890FEF718FD38
:103C6000FFF7D6FC2B68AB4204D0AA699B68926828
:103C70009A4209D3002383F31188019A3B689A4240
:103C80000AD103B0BDE8F0830648FEF741FCF1E736
:103C90000548FEF73DFCCFE7FDF79AFB0008002042
:103CA000D018002060D6000870D600080000000080
:103CB00070B5164C82B0236801930546202383F328
:103CC0001188FFF78DFCFEF7C3FC0023EE68EB6064
:103CD000FEF7DEFCFFF79CFC0D4B1A689A4204D0FD
:103CE000996993688A689A4209D3002383F31188FB
:103CF000019A23689A42304605D102B070BD05484A
:103D0000FEF706FCF1E7FDF763FB00BF00080020AB
:103D1000D018002060D6000800000000000000005D
:103D200070B5184E82B00446336801930D46FEF715
:103D30005FFD0CB3E16B94F8203029430A2BE1635B
:103D400016D00B2B05D0019A33689A4218D102B0D5
:103D500070BDA36A8B43F6D1019A336800219A4261
:103D6000A1620DD1204602B0BDE87040FEF788BECA
:103D7000A36A1942F0D1E6E70348FEF7C9FBD9E789
:103D8000FDF726FB00080020B0D600080000000068
:103D9000F0B5134F83B006463B6801930D46FEF71E
:103DA00027FDB6B13468A6420DD0E3682B43E3602B
:103DB00015B12269134203D0D4E90101FFF7B0FF26
:103DC0002468A642F1D1019A3B689A4205D103B01A
:103DD000F0BD0448FEF79CFBE4E7FDF7F9FA00BFED
:103DE0000008002090D6000800000000000000003D
:103DF0002DE9F041DFF87C801C4CD8F80030A56933
:103E000082B006460193202383F31188FFF7E8FB75
:103E1000FEF71EFCEB6B13EA060706D1AE620A2022
:103E2000FEF7AEFEEB6B03EA060723EA0703EB633C
:103E3000FEF72EFCFFF7ECFB2368A34204D0A26937
:103E40009B6892689A420BD3002383F31188019AEE
:103E5000D8F800309A42384606D102B0BDE8F08169
:103E60000348FEF755FBEFE7FDF7B2FAD018002044
:103E700060D60008000800200000000000000000DC
:103E800070B50C4CC16082B0266801960A4400608F
:103E9000019E02612268069D4060C0E905119642BC
:103EA0004FF00001C3618160056201D102B070BDB5
:103EB000FDF78EFA0008002000000000000000005E
:103EC00070B5164D82B004462B6801930E46FEF77E
:103ED0008FFCFEF78DFCD4E905239A42A36816D027
:103EE0000133511CA36061611670D4E904329A4217
:103EF0000AD220460021FFF7FBF90020019A2B6827
:103F00009A4209D102B070BDE3686361F1E7002B0A
:103F1000E6D06FF00300F1E7FDF75AFA0008002041
:103F2000F0B5234F83B03B68019304460E4620232F
:103F300083F31188FFF754FBFEF78AFBE36943B173
:103F40002046984705E031462046FFF7A9F9051EAF
:103F500010DBFEF74DFCA368002BF4D0A1692069AB
:103F60004A1C013B8242A360A26128BFE3680D782E
:103F700028BFA361FEF78CFBFFF74AFB0D4B1A68C5
:103F80009A4204D0996993688A689A4209D30023B7
:103F900083F31188019A3B689A42284605D103B001
:103FA000F0BD0548FEF7B4FAF1E7FDF711FA00BFDE
:103FB00000080020D0180020C0D600080000000033
:103FC0002DE9F04FDFF8F490044685B0D9F80000F1
:103FD00003908A461D46D4F81C809346002A60D080
:103FE000202383F311880193FFF7FAFAFEF730FBE1
:103FF0002F4E0027B8F1000F07D02046C04704E03D
:1040000029462046FFF74CF960BBFEF7F1FBA36899
:10401000002BF5D0A269013B511CA161A36013786C
:104020000AF8013B2369A2699A4224BFE368A361AD
:10403000FEF72EFBFFF7ECFA3368B34204D0B26907
:104040009B6892689A4228D3002383F31188013732
:10405000BB4519D0019B83F31188FFF7C1FAFEF726
:10406000F7FAC7E7FEF714FBFFF7D2FA3368B3425B
:1040700007D0B2699B6892689A4202D20D48FEF757
:1040800047FA002383F31188039AD9F800309A4243
:1040900038460AD105B0BDE8F08F0648FEF738FA79
:1040A000D2E70548FEF734FA9AE7FDF791F900BF29
:1040B000D0180020C0D60008D0D600080008002084
:1040C00070B50B4D82602E68C16082B0C0E90000FF
:1040D00001960A44019E02612A68069C9642C0E944
:1040E0000511C0E9073401D102B070BDFDF770F9C8
:1040F0000008002000000000000000000000000098
:104100002DE9F0412E4F82B03B680193044688466A
:104110001646202383F31188FFF762FAFEF798FA18
:1041200005E031462046FFF7BBF8051E2DDBFEF704
:104130005FFBA368002BF4D06269013B511C6161F5
:10414000A36082F80080D4E904329A4224BFE36875
:104150006361E3690BB120469847FEF799FAFFF7D0
:1041600057FA184B1A689A4204D0996993688A687A
:104170009A421ED3002585F31188019A3B689A4222
:1041800028461AD102B0BDE8F081FEF781FAFFF7A8
:104190003FFA0C4B1A689A4207D0996993688A686B
:1041A0009A4202D20848FEF7B3F9002383F311883C
:1041B000E3E70548FEF7ACF9DCE7FDF709F900BFD6
:1041C00000080020D0180020C0D600080000000021
:1041D00070B5154E82B0044633680193FEF708FBB4
:1041E000FEF706FBD4E905329342A36815D0206997
:1041F000511C0133A360A161814215780AD2204687
:104200000021FFF775F82846019A33689A4209D1D0
:1042100002B070BDE368A361F1E7002BE7D06FF057
:104220000200F1E7FDF7D4F80008002000000000CC
:104230002DE9F04F04463B48D4F81C90006885B047
:104240000D46039001931646002A61D04FF0200AD4
:104250008AF31188FFF7C4F9FEF7FAF94FF0000866
:10426000314FC346FEF7C4FAA368002B32D062690F
:10427000013B511C6161A3602B781370D4E90432B7
:104280009A4224BFE36863610135B9F1000F01D0A0
:104290002046C847FEF7FCF9FFF7BAF93B68BB4276
:1042A00007D0BA699B6892689A4202D21F48FEF70B
:1042B0002FF98BF31188013E08F101081FD08AF312
:1042C0001188FFF78DF9FEF7C3F9FEF791FAA3689D
:1042D000002BCCD101992046FEF7E2FF0028C1D087
:1042E000FEF7D6F9FFF794F93B68BB4204D0BA69F0
:1042F0009B6892689A420FD3002383F31188094B7D
:10430000039A1B689A4240460AD105B0BDE8F08F77
:104310000748FEF7FDF899E70448FEF7F9F8EBE7E0
:10432000FDF756F800080020D0180020C0D600087D
:10433000E0D60008000000000000000000000000BF
:1043400030B50B490B4A0B680B4D0C4C83B022F077
:104350000702019301980A4B09682A6023F00703BA
:104360008842236001D103B030BDFDF731F800BFB2
:104370000008002087280020441F0020401F002044
:10438000000002200000000000000000000000000B
:1043900070B51C4E82B0336801930446202383F32A
:1043A0001188FFF71DF9FEF753F9FEF721FA164AB7
:1043B000164B15681B68E01D20F007005B1B984238
:1043C0009ABF401910600025FEF762F9FFF720F947
:1043D0000F4B1A689A4204D0996993688A689A4286
:1043E00009D3002383F31188019A33689A4228463F
:1043F00005D102B070BD0748FEF78AF8F1E7FCF777
:10440000E7FF00BF00080020441F0020401F0020DD
:10441000D018002000D700080000000000000000B5
:1044200000B50B4B0B481A6883B0019201991A68CA
:10443000094B036091424FF00003C0E9023305D1FC
:10444000103003B05DF804EBFFF7E2B9FCF7C0FFF2
:1044500000080020481F00209143000800000000D1
:1044600080B50D4A0D4982B000AF13687B604B6880
:1044700023F001034B60EFF30983683383F309886A
:10448000002383F3118879681368994202D10837B1
:10449000BD4680BDFCF79CFF0008002030EF00E027
:1044A000B0B5194C82B000AF23687B60202383F342
:1044B0001188164B5B6813F4006308D183F31188ED
:1044C0007A6823689A421DD10837BD46B0BDF1EE27
:1044D000103AEFF309854FF080720D4B45F84C2CE4
:1044E000DB6845F8083CA5F1680383F30988FEF70B
:1044F00007FC18B1074B45F8503CE1E7064B45F87F
:10450000503CDDE7FCF764FF0008002000ED00E010
:1045100030EF00E0E1020008F402000800000000B3
:1045200010B5184C82B02368019302F059F916486F
:1045300003F0EEFD00F0D4F800F0EAF900F030FAF4
:1045400000F05EFA00F08CFA00F0BAFA00F0E8FA37
:1045500000F016FB01F064F901F06AF801F038FA96
:1045600001F07EFA01F024FA05F02AF9019A236895
:104570009A4204D102B0BDE8104001F059BAFCF7EC
:1045800027FF00BF0008002010DC0008000000002A
:10459000F0B51A4D83B02B68019391420E46144634
:1045A000074619D38B1A1F2B16D806F01F03581C69
:1045B0006209012376098340B24203F1FF3304F01C
:1045C0001F0457F822000BD31840E040019A2B68D3
:1045D0009A4210D103B0F0BD0948FDF799FFE4E716
:1045E00057F82610C4F120020B4020FA04F403FA15
:1045F00002F02043EAE7FCF7EBFE00BF00080020D2
:1046000010D70008000000000000000000000000BB
:10461000F0B51D4E83B033680193054670B37E221A
:104620007F212846FFF7B4FF80B1012806D0002083
:10463000019A33689A4225D103B0F0BD2846302252
:104640004521FFF7A5FF01308002F1E73E22492115
:104650002846FFF79DFF2F22044631212846FFF709
:1046600097FF5022074653212846FFF791FF013458
:1046700002370938BC4004FA00F0D9E70348FDF7D7
:1046800047FFCCE7FCF7A4FE0008002030D7000865
:10469000F0B5104D83B02B680193044698B194F89F
:1046A000D63094F8D770019994F8D4602A6894F8B9
:1046B000D5001B0403EB07633344914203EB002056
:1046C00005D103B0F0BD0448FDF722FFE7E7FCF792
:1046D0007FFE00BF0008002050D700080000000047
:1046E00000B5074B83B01A680192019A1B689A4281
:1046F00004D103B05DF804EB02F032B9FCF768FEB8
:104700000008002000000000000000000000000081
:1047100000B50C4B83B01A68019201220270019916
:104720001A6800239142C0E90133C0E903334361B1
:1047300005D1183003B05DF804EBFFF769B8FCF75A
:1047400047FE00BF0008002000000000000000003D
:1047500070B51D4D82B02B6801930E46044668B3B8
:10476000202383F31188FEF73BFFFDF771FF2378C9
:10477000013B012B02D91548FDF7CAFE20466660B1
:1047800002F03EF902232370FDF782FFFEF740FF9F
:104790000F4B1A689A4204D0996993688A689A42C2
:1047A00008D3002383F31188019A2B689A4209D118
:1047B00002B070BD0748FDF7ABFEF2E70348FDF716
:1047C000A7FECDE7FCF704FE0008002080D7000814
:1047D000D018002070D70008000000000000000082
:1047E0002DE9F041174D82B00446286801900E462D
:1047F00090461F46FDF7FCFF3CB136B1B8F1000F03
:1048000003D0012F04D0FB0702D50F48FDF780FE2F
:104810002378022B05D0043B012B02D90A48FDF76F
:1048200077FE03232370019A2B6826619A42C4E91C
:10483000028705D1204602B0BDE8F04102F060B920
:10484000FCF7C6FD0008002090D70008000000001B
:104850002DE9F041184C82B025680195984605462F
:104860000E461746202383F31188FEF7B9FEFDF7A5
:10487000EFFE43463A4631462846FFF7B1FFFDF7C3
:1048800007FFFEF7C5FE0D4B1A689A4204D09969DE
:1048900093688A689A4209D3002383F31188019AA6
:1048A00023689A4206D102B0BDE8F0810448FDF7C2
:1048B0002FFEF1E7FCF78CFD00080020D018002047
:1048C00070D7000800000000000000000000000099
:1048D00030B50B4C83B023680193054650B1019A63
:1048E00023689A420AD105F1180003B0BDE83040B0
:1048F000FFF776B80348FDF70BFEF0E7FCF768FD1D
:1049000000080020B0D700080000000000000000F0
:1049100000B5074B83B01A680192019A1B689A424E
:1049200004D103B05DF804EB02F03ABFFCF750FD90
:10493000000800200000000000000000000000004F
:1049400030B5134B83B01A68019201220270019CAA
:104950001968002200F1180300F11C054260836110
:1049600000F1200200F12403C561026200F1280574
:1049700000F1080243628C4200F110038562C0E935
:104980000222C0E9043301D103B030BDFCF720FDA1
:1049900000080020000000000000000000000000EF
:1049A00000B5074B83B01A680192019A1B689A42BE
:1049B00004D103B05DF804EB03F08ABBFCF708FDFB
:1049C00000080020000000000000000000000000BF
:1049D00000B50A4B83B01A68019201220270019956
:1049E0001A6800239142C0E9043305D1183003B09E
:1049F0005DF804EBFEF70CBFFCF7EAFC00080020B2
:104A000000B5074B83B01A680192019A1B689A425D
:104A100004D103B05DF804EB02F0E2BEFCF7D8FC71
:104A2000000800200000000000000000000000005E
:104A300000B5084B83B01A68019201220270019AF6
:104A40001B6800219A42416002D103B05DF804FB6B
:104A5000FCF7BEFC00080020000000000000000081
:104A600000B5074B83B01A680192019A1B689A42FD
:104A700004D103B05DF804EB04F02ABAFCF7A8FCFB
:104A800000080020000000000000000000000000FE
:104A900000B5084B83B01A68019201220270019A96
:104AA0001B6800219A42416002D103B05DF804FB0B
:104AB000FCF78EFC00080020000000000000000051
:104AC00000B5074B83B01A680192019A1B689A429D
:104AD00004D103B05DF804EB03F032BDFCF778FCC1
:104AE000000800200000000000000000000000009E
:104AF00000B50A4B83B01A68019201220270019A34
:104B00001B6800219A42416005D10C3003B05DF86A
:104B100004EBFEF77DBEFCF75BFC00BF0008002045
:104B200000B5074B83B01A680192019A1B689A423C
:104B300004D103B05DF804EB04F00AB9FCF748FCBB
:104B4000000800200000000000000000000000003D
:104B500000B5084B83B01A68019201220270019AD5
:104B60001B6800219A42416002D103B05DF804FB4A
:104B7000FCF72EFC000800200000000000000000F0
:104B800000B5074B83B01A680192019A1B689A42DC
:104B900004D103B05DF804EB04F082BAFCF718FC12
:104BA00000080020000000000000000000000000DD
:104BB00000B5094B83B01A68019201220270019975
:104BC0001A68002391424360C360037402D103B0AA
:104BD0005DF804FBFCF7FCFB00080020000000006F
:104BE00070B5214E82B0336801930D46044600280B
:104BF00033D0002931D0202383F31188FEF7F0FC55
:104C0000FDF726FD2378013B012B02D91748FDF75C
:104C10007FFC65606B68A360204604F081FA002287
:104C20000223E2602370FDF733FDFEF7F1FC104B29
:104C30001A689A4204D0996993688A689A4208D39C
:104C4000002383F31188019A33689A4209D102B094
:104C500070BD0848FDF75CFCF2E70448FDF758FC1E
:104C6000C9E7FCF7B5FB00BF00080020D0D700085B
:104C7000D0180020C0D7000800000000000000008D
:104C800070B51C4E82B0336801930C46054650B394
:104C9000202383F31188FEF7A3FCFDF7D9FC2B78C2
:104CA000022B02D01448FDF733FCAB69AC60013C29
:104CB000DC62FDF7EDFCFEF7ABFC104B1A689A4284
:104CC00004D0996993688A689A4208D3002383F3D1
:104CD0001188019A33689A4209D102B070BD084820
:104CE000FDF716FCF2E70448FDF712FCD0E7FCF7ED
:104CF0006FFB00BF00080020E0D70008D01800209C
:104D0000C0D7000800000000000000000000000004
:104D1000F0B5214E83B0336801930D461746044623
:104D200078B3037C8B422CD9202383F31188FEF7C0
:104D300057FCFDF78DFC2378022B02D01748FDF7B6
:104D4000E7FBE3680122AA401343E3603A462946A1
:104D5000204604F0CDFAFDF79BFCFEF759FC104B02
:104D60001A689A4204D0996993688A689A420CD367
:104D7000002383F31188019A33689A4209D103B062
:104D8000F0BD0648FDF7C4FBCEE70648FDF7C0FBC3
:104D9000EEE7FCF71DFB00BF00080020F0D700087D
:104DA000D0180020C0D7000800000000000000005C
:104DB00070B5204E82B0336801930D46044678B337
:104DC000037C8B422CD9202383F31188FEF708FC47
:104DD000FDF73EFC2378022B02D01748FDF798FB25
:104DE000E3680122AA4023EA0203E3602946204641
:104DF00004F096FAFDF74CFCFEF70AFC0F4B1A681C
:104E00009A4204D0996993688A689A420CD3002325
:104E100083F31188019A33689A4209D102B070BDB8
:104E20000548FDF775FBCEE70548FDF771FBEEE79A
:104E3000FCF7CEFA0008002010D80008D018002097
:104E4000C0D70008000000000000000000000000C3
:104E500030B51E4D83B02B680193044680B32023E8
:104E600083F31188FEF7BCFBFDF7F2FB2378022BDE
:104E700002D01748FDF74CFB63689B68E3B12046FE
:104E800004F06EFAFDF704FCFEF7C2FB114B1A6842
:104E90009A4204D0996993688A689A4208D3002399
:104EA00083F31188019A2B689A420DD103B030BD6B
:104EB0000948FDF72DFBF2E70548FDF729FBDEE782
:104EC0000348FDF725FBCAE7FCF782FA000800203B
:104ED00030D80008D0180020C0D70008000000001B
:104EE00070B5294E82B0336801930D460446002800
:104EF00032D0037C8B422FD9202383F31188FEF715
:104F00006FFBFDF7A5FB2378022B02D01F48FDF7AE
:104F1000FFFAE368EB40DB0726D5636803EBC503C4
:104F20001B6953B32946204604F03AFAFDF7B0FB5B
:104F3000FEF76EFB164B1A689A4204D09969936883
:104F40008A689A420CD3002383F31188019A33684C
:104F50009A4216D102B070BD0C48FDF7D9FACBE7E2
:104F60000C48FDF7D5FAEEE70848FDF7D1FA63687B
:104F700003EBC5031B69002BD4D10448FDF7C8FA25
:104F8000D0E7FCF725FA00BF0008002050D8000841
:104F9000D0180020C0D7000800000000000000006A
:104FA00070B5104D82B02B6801930E46044650B187
:104FB00049B12379052B0CD00120019A2B689A4224
:104FC0000ED102B070BD0848FDF7A2FA2379052B77
:104FD000F2D1A36A73604FF4007333600020ECE7F2
:104FE000FCF7F6F900080020E0D8000800000000F7
:104FF0002DE9F047DFF89C8386B002AFD8F8003087
:10500000FB600446002800F019812379022B01D0AF
:10501000052B2BD103232371204602F079FC0022BB
:105020001146204602F0ECFC07F108034FF4D5725C
:105030000821204602F02CFDE0B9BB680122C3F331
:1050400003239342226300F0FD80204602F098FC87
:10505000022323710125FA68D8F800309A422846C5
:1050600040F046811037BD46BDE8F087C048FDF7E7
:105070004FFACFE707F1080300223721204602F05C
:1050800007FD002840F0BE80BB68BA4A1A40002ADB
:1050900040F0B88022631146204602F0B1FC266B36
:1050A00006F00F03022B00F0AF80B34EB34ADFF8D7
:1050B000C492012B18BF1646642504E0013DC4D0FC
:1050C0000A20FDF7FDFF07F10803002237212046E3
:1050D00002F0DEFC0028B8D1BB6813EA090FB4D196
:1050E00007F1080332462921204602F0A9FC0028D6
:1050F000ABD1BB68002BE1DA5B0003D5236B43F037
:105100001003236304F1080300220221204602F069
:10511000B7FD002899D1024604F138030321204647
:1051200002F0B6FC002890D104F118052B46A26BC2
:105130000921204602F0A4FD002886D13B1DA26B68
:105140000721204602F0A4FC824600287FF47DAFB0
:10515000236B03F00F03022B00F097806E467E2234
:1051600090B07F212846FFF713FA0DF108090028B7
:1051700079D10146B546204602F0EAFB236B03F0E5
:105180000F03022B00F096802846FFF741FAA06239
:105190003B1D4FF400721021204602F079FC0546B9
:1051A00000287FF452AF7B68724E33427FF44DAFDC
:1051B000236B03F00F03012B40F2B280022B7FF42C
:1051C00044AFE36A1A79012A00F0A88017D3022AB3
:1051D00040F0E2806A4E1979204602F0E9FB07F1BF
:1051E000080332460621204602F052FC00287FF4D4
:1051F0002CAFBA685F4B1340002B7FF426AF05231A
:10520000237128E7022323635E4E642505E0013DF8
:105210003FF41BAF0A20FDF753FF07F108033246A6
:105220000121204602F00CFC00287FF40EAFBB6881
:10523000002BECDA5B007FF565AF5FE74C48FDF7CC
:1052400067F9E2E6024607F108033721204602F03B
:105250001FFC00287FF4F9AEBA68464B1340002BC0
:105260007FF4F3AE1BE7CDF800A0062340224946A9
:10527000204602F035FD00284ED199F80D3013F08C
:10528000020337D11946B54675E7E36A1B687BB15F
:1052900007F108033C4A0621204602F0F9FB38B921
:1052A000BB6834491940B1FA81F1490963E7B54651
:1052B000002160E77E227F212846FFF769F9012857
:1052C0007FF662AFE36A1D68002D3FF4BEAE002397
:1052D00000934FF4007208232946204602F000FD97
:1052E00000287FF4B2AE2846FFF7D2F9A0624FE75C
:1052F000FCF76EF8254B00934022062349462046D2
:1053000002F0EEFC40B999F8103003F00F030F2BB8
:10531000CDD0B54601212EE7B54696E61C4E5AE79C
:10532000E36A197900293FF46AAF01297FF48DAE51
:10533000204602F03DFB07F10803A26B372120460F
:1053400002F0A6FB00287FF480AEBB6833427FF4F6
:105350007CAE07F1080302220621204602F098FBEA
:1053600000287FF472AEBB6833423FF448AF6CE66E
:1053700090D8000808E0FFFD000010C00000108079
:105380000002B7030080FFC00001B903F1FFFF80F6
:105390000001B703000800200248034EFDF7B8F8EB
:1053A000E36A18E770D800080000B70300000000A7
:1053B0002DE9F041194D82B02C6801940F469046BA
:1053C0001E460446C0B1BAB1B3B12379052B02D051
:1053D0001348FDF79DF8781EA36A304498420FD910
:1053E000636B43F0800363630120019A2B689A4248
:1053F00011D102B0BDE8F0810948FDF789F8E4E772
:1054000006203346207142463946204602F0C8FD48
:1054100005232371E9E7FBF7DBFF00BF000800204D
:10542000B0D80008000000000000000000000000EC
:105430002DE9F041194D82B02C6801940F46904639
:105440001E460446C0B1BAB1B3B12379052B02D0D0
:105450001348FDF75DF8781EA36A304498420FD9CF
:10546000636B43F0800363630120019A2B689A42C7
:1054700011D102B0BDE8F0810948FDF749F8E4E731
:1054800007203346207142463946204602F0C8FDC7
:1054900005232371E9E7FBF79BFF00BF000800200D
:1054A000C0D800080000000000000000000000005C
:1054B00070B50E4D82B02B680193044680B12679F9
:1054C000052E06D00120019A2B689A420CD102B019
:1054D00070BD08232371204602F0E2FD2671F2E739
:1054E0000348FDF715F8EAE7FBF772FF0008002014
:1054F000D0D80008000000000000000000000000FC
:1055000070B5124D124E2B6882B0044601936B4663
:10551000A26B0D21204602F0BBFA78B9009B334202
:105520000BD1C3F34323042B08D04FF0010005D364
:10553000072B03D8FDF7C4FDE9E70120019A2B688A
:105540009A4201D102B070BDFBF742FF0008002073
:1055500008E0FFFD00000000000000000000000067
:1055600070B52D4E82B033680193044600284CD0AC
:10557000202383F31188FEF733F8FDF769F82379C8
:10558000022B29D0052B21D104232371FDF780F8AC
:10559000FEF73EF8214B1A689A4204D09969936845
:1055A0008A689A4229D3002383F311882046FFF7A3
:1055B000A7FF0546204602F0E3F902232371019A72
:1055C00033689A42284624D102B070BD1448FCF7D3
:1055D0009FFF2379022BD7D1FDF75AF8FEF718F871
:1055E0000E4B1A689A4204D0996993688A689A4265
:1055F00007D3002585F31188E1E70A48FCF788FF07
:10560000D1E70848FCF784FFF3E70548FCF780FF83
:10561000AEE7FBF7DDFE00BF00080020D018002039
:10562000A0D80008F0D8000800000000000000002A
:1056300000B5074B83B01A680192019A1B689A4221
:1056400004D103B05DF804EB02F042B9FBF7C0FEF1
:105650000008002000000000000000000000000022
:1056600010B50A4B0A4A1968026082B00124019100
:1056700001991A680471002391424363C0E90A3317
:1056800001D102B010BDFBF7A3FE00BF000800204F
:1056900000D9000800000000000000000000000029
:1056A00030B5084C83B025680195019D2468A5425A
:1056B00005D10C3003B0BDE83040FEF781BCFBF7EC
:1056C00087FE00BF0008002000000000000000006E
:1056D00010B5094B82B01C680194019C1B689C4268
:1056E00007D10C304FF0FF3302B0BDE81040FEF799
:1056F00067BCFBF76DFE00BF000800200000000043
:1057000030B5084C83B025680195019D2468A542F9
:1057100005D1303003B0BDE83040FEF789BDFBF75E
:1057200057FE00BF0008002000000000000000003D
:1057300010B5094B82B01C680194019C1B689C4207
:1057400007D130304FF0FF3302B0BDE81040FEF714
:105750006FBDFBF73DFE00BF000800200000000009
:1057600000B5084B83B01A680192019A1B689A42EF
:1057700005D10C3003B05DF804EBFEF7D1BBFBF7AD
:1057800027FE00BF0008002000000000000000000D
:1057900000B5094B83B01A680192019A1B689A42BE
:1057A00007D10C304FF0FF3103B05DF804EBFEF78A
:1057B000B7BBFBF70DFE00BF000800200000000093
:1057C00010B5084B82B01C680194019C1B689C4278
:1057D00005D1303002B0BDE81040FEF791BCFBF7B8
:1057E000F7FD00BF000800200000000000000000DE
:1057F00000B5094B83B01A680192019A1B689A425E
:1058000007D130304FF0FF3203B05DF804EBFEF704
:1058100077BCFBF7DDFD00BF0008002000000000A2
:1058200000B5074B83B01A680192019A1B689A422F
:1058300004D103B05DF804EB03F002BFFBF7C8FD31
:105840000008002000000000000000000000000030
:10585000F0B5144D144B2F68044685B040F8043B56
:105860004FF0010C00940B461646606084F808C0A7
:1058700004F1540104F10C0080220397FEF700FBB1
:1058800033468022009404F1D40104F13000FEF785
:1058900017FC039A2B689A4201D105B0F0BDFBF7C3
:1058A00097FD00BF0008002050D90008000000004C
:1058B00070B51D4D82B02B6801930E46044668B347
:1058C000202383F31188FDF78BFEFCF7C1FE237ABA
:1058D000013B012B02D91548FCF71AFE3146204640
:1058E00003F0CEFE02232372FCF7D2FEFDF790FEFA
:1058F0000F4B1A689A4204D0996993688A689A4251
:1059000008D3002383F31188019A2B689A4209D1A6
:1059100002B070BD0748FCF7FBFDF2E70348FCF757
:10592000F7FDCDE7FBF754FD0008002030D9000853
:10593000D018002020D9000800000000000000005E
:1059400070B5174D82B004462B6801930E46FCF7E4
:105950004FFFF4B1FCF74CFF636963B1314604F1CA
:105960000C00FEF7ADFA0028019A2B6808DB9A427A
:1059700013D102B070BD04216018FEF709FAEDE7FB
:105980009A420AD1201D802102B0BDE87040FEF786
:10599000FFB90448FCF7BCFDDCE7FBF719FD00BFCD
:1059A0000008002040D900080000000000000000AE
:1059B00000B5064B83B01A680192019A1B689A429F
:1059C00002D103B05DF804FBFBF702FD00080020E4
:1059D00000B5074B83B01A680192019A1B689A427E
:1059E00004D103B05DF804EB03F0DAB9FBF7F0FC87
:1059F000000800200000000000000000000000007F
:105A000000B50A4B83B01A68019201220270019915
:105A10001A6800239142C0E9013305D10C3003B06C
:105A20005DF804EBFDF7F4BEFBF7D2FC00080020A4
:105A300000B5074B83B01A680192019A1B689A421D
:105A400004D103B05DF804EB03F0F2BCFBF7C0FC3B
:105A5000000800200000000000000000000000001E
:105A600000B5074B83B01A680192019A1B689A42ED
:105A700004D103B05DF804EB02F08ABDFBF7A8FC8B
:105A800000080020000000000000000000000000EE
:105A900000B50C4B83B01A68019201220270019983
:105AA0001A6800239142C36183620362C362436246
:105AB0000363C0E9013302D103B05DF804FBFBF7D7
:105AC00087FC00BF0008002000000000000000006C
:105AD000F0B5124D83B004462B6801930E46FCF7D7
